:020000040000FA
:1000000000700020ED040000090500000B05000051
:100010000D0500000F0500001105000000000000A4
:1000200000000000000000000000000013050000B8
:10003000150500000000000017050000290B000056
:100040001D0500001D0500001D0500001D05000028
:100050001D0500001D0500001D0500001D05000018
:100060001D0500001D0500001D0500001D05000008
:100070001D0500001D0500001D0500001D050000F8
:100080001D0500001D0500001D0500001D050000E8
:100090001D0500001D0500001D0500001D050000D8
:1000A0001D0500001D0500001D0500001D050000C8
:1000B0001D0500001D0500001D0500001D050000B8
:1000C0001D050000190800001D0500001D050000A9
:1000D0001D0500001D0500001D0500001D05000098
:1000E0001D0500001D0500001D0500001D05000088
:1000F0001D0500001D0500001D0500001D05000078
:10010000CD0600001D0500001D0500001D050000B6
:100110001D0500001D0500001D0500001D05000057
:100120001D0500001D0500001D0500001D05000047
:100130001D050000CD0800001D0500001D05000084
:100140001D0500001D0500001D0500001D05000027
:100150001D0500001D0500001D0500001D05000017
:100160001D0500001D0500001D0500001D05000007
:100170001D0500001D0500001D0500001D050000F7
:100180001D0500001D0500001D0500001D050000E7
:100190001D0500001D0500001D0500001D050000D7
:1001A0001D0500001D0500001D0500001D050000C7
:1001B0001D0500001D0500001D0500001D050000B7
:1001C0001D0500001D0500001D0500001D050000A7
:1001D0001D0500001D0500001D0500001D05000097
:1001E0001D0500001D0500001D0500001D05000087
:1001F0001D0500001D0500001D0500001D05000077
:100200001D0500001D0500001D0500001D05000066
:100210001D0500001D0500001D0500001D05000056
:100220001D0500001D0500001D0500001B05000048
:1002300000000000000000000000000000000000BE
:1002400000000000000000000000000000000000AE
:10025000000000000000000000000000000000009E
:10026000000000000000000000000000000000008E
:10027000000000000000000000000000000000007E
:10028000000000000000000000000000000000006E
:10029000000000000000000000000000000000005E
:1002A000000000000000000000000000000000004E
:1002B000000000000000000000000000000000003E
:1002C000000000000000000000000000000000002E
:1002D000000000000000000000000000000000001E
:1002E000000000000000000000000000000000000E
:1002F00000000000000000000000000000000000FE
:1003000000000000000000000000000000000000ED
:1003100000000000000000000000000000000000DD
:1003200000000000000000000000000000000000CD
:1003300000000000000000000000000000000000BD
:1003400000000000000000000000000000000000AD
:10035000000000000000000000000000000000009D
:10036000000000000000000000000000000000008D
:10037000000000000000000000000000000000007D
:10038000000000000000000000000000000000006D
:10039000000000000000000000000000000000005D
:1003A000000000000000000000000000000000004D
:1003B000000000000000000000000000000000003D
:1003C000000000000000000000000000000000002D
:1003D000000000000000000000000000000000001D
:1003E000000000000000000000000000000000000D
:1003F00000000000000000000000000000000000FD
:10040000FFFFFFFFFFFFFFFFFFFFFFFFFEFFFFFFFD
:1004100008ED00E000F002F800F02EF80AA090E8E5
:10042000000C82448344AAF10107DA4501D100F0AF
:1004300023F8AFF2090EBAE80F0013F0010F18BF4E
:10044000FB1A43F0010318475C0B00006C0B000023
:100450000023002400250026103A28BF78C1FBD8CD
:10046000520728BF30C148BF0B6070471FB500F06E
:100470008CFD1FBD10B510BDDFF80CD0FFF7F6FFE7
:1004800000F07EFD00F056F80070002003B4FFF786
:10049000F1FF03BC00F058F8300200000080FF1F9D
:1004A000000000000000000030020000B40F000057
:1004B000B40F00000084FF1F0084FF1F0084FF1F93
:1004C00000000020400000200084FF1F0084FF1F68
:1004D0000084FF1FB40F0000B40F000000000020D4
:1004E000000000200080FF1F006C002072B60C4846
:1004F0000C4901600A6882F308880B4880470B4862
:10050000804762B60A488047FEE7FEE7FEE7FEE75F
:10051000FEE7FEE7FEE7FEE7FEE7FEE7FEE7000098
:1005200008ED00E000000000390B0000E10E0000C3
:100530001504000010B50446AFF300802046BDE866
:100540001040FFF7A3BF704701491820ABBEFEE77C
:100550002600020081B08DF803009DF803000128F9
:1005600009D1FFE745F22C11C4F20601086840F0FA
:100570008040086008E045F22C11C4F206010868CA
:1005800020F080400860FFE701B0704781B08DF82F
:1005900003009DF80300012809D1FFE745F230115F
:1005A000C4F20601086840F08040086008E045F2A7
:1005B0003011C4F20601086820F080400860FFE7AF
:1005C00001B0704780B582B001200190FFF7C2FFF3
:1005D0000198FFF7DBFF4CF20003C4F20403186834
:1005E00040F4807018604CF23C02C4F204021068BF
:1005F00040F4807010604CF24001C4F204010868BD
:1006000040F480700860186820F0020018601068DC
:1006100020F002001060086820F0020008604FF22D
:10062000D401C4F20F01086840F400400860086873
:1006300040F480300860086840F0010008604FF224
:10064000C001C4F20F01086840F400400860086867
:1006500040F480300860086840F0010008604BF208
:100660003002C4F20402106840F4807010604BF253
:100670003401C4F20401086840F480700860106816
:1006800020F002001060086820F0020008604FF2BD
:100690009403C4F20F03186820F48050186018689F
:1006A00020F4005018604EF20413CEF200031868D4
:1006B00040F000501860106840F410201060086886
:1006C00040F41020086002B080BD000047F20C0129
:1006D000C4F20301086840F00100086040F2000124
:1006E000C2F20001086801300860704781B08DF8DF
:1006F00003008DF8021045F2DC01C4F2060108681F
:1007000020F0E06008609DF80200012809D1FFE7B1
:1007100045F2DC01C4F20601086840F08070086010
:100720002DE09DF80200022809D1FFE745F2DC0127
:10073000C4F20601086840F0007008601EE09DF8F1
:100740000200032809D1FFE745F2DC01C4F20601EB
:10075000086840F0407008600FE09DF8020004282F
:1007600009D1FFE745F2DC01C4F20601086840F058
:10077000C060086000E0FFE7FFE7FFE7FFE79DF8E4
:100780000300012809D1FFE745F2DC01C4F20601AC
:10079000086840F08040086008E045F2DC01C4F2DF
:1007A0000601086820F080400860FFE701B070474C
:1007B00080B586B005900020029004900120019041
:1007C0000421FFF793FF0198029947F20802C4F24F
:1007D0000302106047F21002C4F203021060059891
:1007E00047F22002C4F2030210603020039000F0B0
:1007F00051F8039800F01AF8039800F031F80498C3
:1008000040F001000490049847F22801C4F203016B
:10081000086006B080BD000080B500F03DFB40F2EE
:100820000C01C2F200010420087080BD81B08DF877
:1008300003009DF9031001EBD16020F01F028A1A1A
:10084000012101FA02F342114EF28021CEF20001A1
:1008500051F82200184341F8220001B0704700000F
:1008600081B08DF803009DF9031001EBD16020F0F9
:100870001F028A1A012101FA02F342114EF20011FD
:10088000CEF2000151F82200184341F8220001B0D5
:100890007047000081B08DF803008DF802109DF8BC
:1008A00002009DF9032002EB927121F00301521A1C
:1008B000D200043200FA02F34EF20042CEF20002FD
:1008C00088581843885001B0704700004BF2300040
:1008D000C4F204000068C00100280FD5FFE74BF206
:1008E0003001C4F20401086840F08070086040F2F2
:1008F0002101C2F2000101200870FFE74BF2340031
:10090000C4F204000068C00100280FD5FFE74BF2D5
:100910003401C4F20401086840F08070086040F2BD
:100920002101C2F2000102200870FFE770470000B9
:1009300082B08DF807008DF806108DF805208DF82F
:100940000430002000909DF80700012805D1FFE742
:10095000009840F0807000901AE09DF8070002288F
:1009600005D1FFE7009840F0007000900FE09DF87F
:100970000700042805D1FFE7009840F0C060009010
:1009800004E0009840F040700090FFE7FFE7FFE7C9
:100990009DF80610009840EA014000909DF805106F
:1009A000009840EA011000909DF804100098084358
:1009B0000090009844F21401C4F206010860FFE7B9
:1009C00044F21000C4F2060001680620B0EB116F7B
:1009D00001D0FFE7F4E702B07047000083B00020C9
:1009E000029001900090029840F00100029002985D
:1009F00040F480700290029844F20411C4F206019F
:100A00000860019840F020000190019820F0080053
:100A10000190019840F004000190019844F20811FF
:100A2000C4F206010860009840F0010000900098B0
:100A300044F20011C4F206010860FFE744F200101E
:100A4000C4F206000068C001002801D4FFE7F5E702
:100A500003B0704784B08DF80F008DF80E100020A1
:100A6000029001900090009844F20061C4F20601E7
:100A70000860FFE744F20060C4F20600006800026C
:100A8000002801D5FFE7F5E79DF80F0030B1FFE73B
:100A90009DF80F10029808430290FFE79DF80E00A2
:100AA00038B1FFE79DF80E10029840EA012002904D
:100AB000FFE7029844F20461C4F20601086001985D
:100AC00020F001000190019820F4706001900198DD
:100AD00040F460200190019844F20861C4F20601DC
:100AE0000860FFE744F20060C4F2060000680002FC
:100AF000002801D5FFE7F5E7009840F001000090DD
:100B0000009844F20061C4F206010860FFE744F275
:100B10000060C4F206000068C001002801D4FFE7AD
:100B2000F5E704B07047000040F23801C2F200015E
:100B300008680130086070474EF68851CEF2000117
:100B4000086840F4700008604EF63471CEF200017F
:100B5000086820F08040086042F20400C4F20500FA
:100B60004CF22051CDF628110160006842F20001DC
:100B7000C4F2050142F22010086042F20801C4F2FA
:100B800005014FF6FF7008607047000081B08DF8D6
:100B900003008DF8021045F2AC11C4F2060108689A
:100BA00020F0E06008609DF80200012809D1FFE70D
:100BB00045F2AC11C4F20601086840F0807008608C
:100BC0002DE09DF80200022809D1FFE745F2AC11A3
:100BD000C4F20601086840F0007008601EE09DF84D
:100BE0000200032809D1FFE745F2AC11C4F2060167
:100BF000086840F0407008600FE09DF8020004288B
:100C000009D1FFE745F2AC11C4F20601086840F0D3
:100C1000C060086000E0FFE7FFE7FFE7FFE79DF83F
:100C20000300012809D1FFE745F2AC11C4F2060127
:100C3000086840F08040086008E045F2AC11C4F25A
:100C40000601086820F080400860FFE701B07047A7
:100C500080B50120FFF77EFC4BF21801C4F20401BD
:100C6000086820F4E0600860086840F400700860DC
:100C70004BF21C01C4F20401086820F4E060086033
:100C8000086840F40070086080BD000081B00090EA
:100C9000FFE74BF21400C4F20600006800020028CF
:100CA00001D4FFE7F5E7009800784BF21C01C4F28D
:100CB0000601086001B0704780B584B003908DF8DC
:100CC0000B10002001900190FFE701989DF80B1098
:100CD00088420BD2FFE70398FFF7D8FF0398013053
:100CE0000390FFE7019801300190EEE704B080BD6A
:100CF00080B582B0FFF772FE022101910846FFF72E
:100D0000A9FE019B042001221146FFF711FEFFF707
:100D100059FC00F06FF84EF66020FFF749FDFFE741
:100D200040F22200C2F2000000F002F8F8E70000F2
:100D300080B582B0019040F20C00C2F20000007851
:100D400004283FD1FFE740F20400C2F2000000781F
:100D500040F20501C2F200010978884207D1FFE79D
:100D600040F20C01C2F200010320087029E040F2B9
:100D70000400C2F20000007840F20501C2F2000156
:100D8000097888421CDAFFE740F20400C2F2000052
:100D9000037840F20D01C2F20001C95C40F2220268
:100DA000C2F20002D154019901310191017801315F
:100DB0000170007840F20801C2F200010860FFE70C
:100DC000FFE715E040F20800C2F20000006870B1D1
:100DD000FFE740F22200C2F200000721FFF76CFF9C
:100DE00040F20801C2F2000100200860FFE7FFE7BF
:100DF00002B080BD80B584B0002003900290FFF760
:100E000027FF012101910846FFF7C0FE01990398D1
:100E100020F000500390039840F070600390039816
:100E200040F034000390039820F40050039003989E
:100E30004BF21002C4F206021060029820F4006027
:100E40000290029820F010000290029840F40010E6
:100E50000290029840F44020029002984BF218024F
:100E6000C4F20602106021200090FFF713FD0098E5
:100E7000FFF7F6FC0098FFF7D9FC019840F23C011F
:100E8000C2F20001087040F20C01C2F2000103201E
:100E9000087004B080BD00004BF21C00C4F20600D4
:100EA000016840F20500C2F20000037840F20D0232
:100EB000C2F20002D1540078152807D3FFE740F2B0
:100EC0000501C2F200010020087007E040F20501B0
:100ED000C2F20001087801300870FFE77047000097
:100EE00085B040F29840C0F200000068029040F2E5
:100EF000A040C0F200000068019040F29C40C0F2A7
:100F000000000068009000208DF80F000098019903
:100F1000884224D0FFE700200490FFE7049802995C
:100F2000B0EB910F0CD2FFE70198049A50F8220021
:100F3000009941F82200FFE7049801300490EDE7A2
:100F400040F29C40C0F2000000689DF80F2040F283
:100F50001041C0F2000151F8221008600EE040F28A
:100F6000A040C0F2000000689DF80F2040F2104140
:100F7000C0F2000151F822100860FFE705B0704789
:100F800080B5FFF7B5FE002080BDF1EE100A4FF6E8
:100F9000FF71C0F2C03120EA010040F04070E1EE84
:100FA000100A7047B40F000000000020400000004D
:040FB00050040000E9
:0400000500000415DE
:00000001FF
